{
  "abi": [
    {
      "inputs": [
        {
          "internalType": "address",
          "name": "oracleAddress",
          "type": "address"
        }
      ],
      "stateMutability": "nonpayable",
      "type": "constructor"
    },
    {
      "inputs": [
        {
          "components": [
            {
              "components": [
                {
                  "internalType": "bytes32",
                  "name": "parentHash",
                  "type": "bytes32"
                },
                {
                  "internalType": "bytes32",
                  "name": "sha3Uncles",
                  "type": "bytes32"
                },
                {
                  "internalType": "address",
                  "name": "miner",
                  "type": "address"
                },
                {
                  "internalType": "bytes32",
                  "name": "stateRoot",
                  "type": "bytes32"
                },
                {
                  "internalType": "bytes32",
                  "name": "transactionsRoot",
                  "type": "bytes32"
                },
                {
                  "internalType": "bytes32",
                  "name": "receiptsRoot",
                  "type": "bytes32"
                },
                {
                  "internalType": "bytes",
                  "name": "logsBloom",
                  "type": "bytes"
                },
                {
                  "internalType": "uint256",
                  "name": "difficulty",
                  "type": "uint256"
                },
                {
                  "internalType": "uint256",
                  "name": "number",
                  "type": "uint256"
                },
                {
                  "internalType": "uint256",
                  "name": "gasLimit",
                  "type": "uint256"
                },
                {
                  "internalType": "uint256",
                  "name": "gasUsed",
                  "type": "uint256"
                },
                {
                  "internalType": "uint256",
                  "name": "timestamp",
                  "type": "uint256"
                },
                {
                  "internalType": "bytes",
                  "name": "extraData",
                  "type": "bytes"
                },
                {
                  "internalType": "bytes32",
                  "name": "mixHash",
                  "type": "bytes32"
                },
                {
                  "internalType": "uint256",
                  "name": "nonce",
                  "type": "uint256"
                }
              ],
              "internalType": "struct BlockData",
              "name": "blockData",
              "type": "tuple"
            },
            {
              "components": [
                {
                  "internalType": "bool",
                  "name": "status",
                  "type": "bool"
                },
                {
                  "internalType": "uint256",
                  "name": "cumulativeGasUsed",
                  "type": "uint256"
                },
                {
                  "internalType": "bytes",
                  "name": "bitvector",
                  "type": "bytes"
                },
                {
                  "components": [
                    {
                      "internalType": "address",
                      "name": "logAddress",
                      "type": "address"
                    },
                    {
                      "internalType": "bytes32[]",
                      "name": "topics",
                      "type": "bytes32[]"
                    },
                    {
                      "internalType": "bytes",
                      "name": "data",
                      "type": "bytes"
                    }
                  ],
                  "internalType": "struct Log[]",
                  "name": "logs",
                  "type": "tuple[]"
                }
              ],
              "internalType": "struct Receipt",
              "name": "txReceipt",
              "type": "tuple"
            },
            {
              "internalType": "uint256",
              "name": "blockNumber",
              "type": "uint256"
            },
            {
              "internalType": "bytes32[]",
              "name": "receiptProofBranch",
              "type": "bytes32[]"
            }
          ],
          "internalType": "struct ProverDto",
          "name": "data",
          "type": "tuple"
        }
      ],
      "name": "proveReceiptInclusion",
      "outputs": [
        {
          "internalType": "bool",
          "name": "",
          "type": "bool"
        }
      ],
      "stateMutability": "view",
      "type": "function"
    }
  ],
  "bytecode": {
    "object": "0x60803461007457601f610ab238819003918201601f19168301916001600160401b038311848410176100795780849260209460405283398101031261007457516001600160a01b0381169081900361007457600080546001600160a01b031916919091179055604051610a2290816100908239f35b600080fd5b634e487b7160e01b600052604160045260246000fdfe608060405260048036101561001357600080fd5b600090813560e01c632bd275631461002a57600080fd5b346100f557600319906020368301126100f15780359167ffffffffffffffff908184116100ed5760809084360301126100e957610068610100604052565b828201358181116100ed576100829083369186010161020b565b60805260248301358181116100ed576100a090833691860101610442565b60a052604483013560c05260648301359081116100e9576100c593503692010161030a565b60e0526100e56100d36104de565b60405190151581529081906020820190565b0390f35b8380fd5b8480fd5b8280fd5b5080fd5b634e487b7160e01b600052604160045260246000fd5b6060810190811067ffffffffffffffff82111761012b57604052565b6100f9565b6040810190811067ffffffffffffffff82111761012b57604052565b90601f8019910116810190811067ffffffffffffffff82111761012b57604052565b604051906101e0820182811067ffffffffffffffff82111761012b57604052565b35906001600160a01b03821682036101a357565b600080fd5b67ffffffffffffffff811161012b57601f01601f191660200190565b81601f820112156101a3578035906101db826101a8565b926101e9604051948561014c565b828452602083830101116101a357816000926020809301838601378301015290565b9190916101e0818403126101a35761022161016e565b92813584526020820135602085015261023c6040830161018f565b6040850152606082013560608501526080820135608085015260a082013560a085015260c082013567ffffffffffffffff908181116101a357826102819185016101c4565b60c086015260e083013560e0860152610100808401359086015261012080840135908601526101408084013590860152610160808401359086015261018091828401359182116101a3576102d69184016101c4565b908401526101a080820135908401526101c08091013590830152565b67ffffffffffffffff811161012b5760051b60200190565b81601f820112156101a357803591610321836102f2565b9261032f604051948561014c565b808452602092838086019260051b8201019283116101a3578301905b828210610359575050505090565b8135815290830190830161034b565b9080601f830112156101a357813561037f816102f2565b9260409161038f8351958661014c565b808552602093848087019260051b840101938185116101a357858401925b8584106103be575050505050505090565b67ffffffffffffffff84358181116101a357860191606080601f1985880301126101a3578451906103ee8261010f565b6103f98b860161018f565b8252858501358481116101a357878c6104149288010161030a565b8b8301528401359283116101a357610433868b809695819601016101c4565b858201528152019301926103ad565b9190916080818403126101a3576040519067ffffffffffffffff90608083018281118482101761012b576040528294813580151581036101a35784526020820135602085015260408201358381116101a357816104a09184016101c4565b604085015260608201359283116101a3576060926104be9201610368565b910152565b908160209103126101a3575190565b6040513d6000823e3d90fd5b6104f16104ed60a05151151590565b1590565b61056d5760005460c051604051637741562f60e11b8152600481019190915290602090829060249082906001600160a01b03165afa9081156105a057600091610572575b506105416080516106e9565b0361056d5761056461055460a0516108bc565b60e05160a06080510151906105a5565b61056d57600190565b600090565b610593915060203d8111610599575b61058b818361014c565b8101906104c3565b38610535565b503d610581565b6104d2565b90926000925b82518410156105fc576020808560051b850101519160008382106000146105ef57506000525260406000205b9260001981146105ea57600101926105ab565b610605565b91604093835252206105d7565b91509291501490565b634e487b7160e01b600052601160045260246000fd5b919082519283825260005b848110610647575050826000602080949584010152601f8019910116010190565b602081830181015184830182015201610626565b9b97999591939d9f9e9d6106926106de9c98946101c09f9b97938f6106b29860409282526020820152019060018060a01b03169052565b60608d015260808c015260a08b01526101e08060c08c01528a019061061b565b9560e089015261010088015261012087015261014086015261016085015283820361018085015261061b565b946101a08201520152565b8051602082015160408301519091906001600160a01b031692606081015190608081015160a082015160c083015160e0840151610100850151610120860151916101408701519361016088015195610180890151976101a08a0151996101c001519a6040519e8f9e8f6020019e61075f9f61065b565b03601f1981018252610771908261014c565b61077a9061078d565b610783906107bf565b8051906020012090565b6000602060405161079d81610130565b82815201526020815191604051926107b484610130565b835201602082015290565b8051906107cb826101a8565b916107d9604051938461014c565b8083526107e8601f19916101a8565b0136602084013781511561080f5780602061080c920151905190836020019061083f565b90565b5090565b60200390602082116105ea57565b6000198101919082116105ea57565b601f81116105ea576101000a90565b9290919283156108b65792915b60209384841061088157805182528481018091116105ea579381018091116105ea5791601f1981019081116105ea579161084c565b919350918061088f57505050565b6108a361089e6108a892610813565b610830565b610821565b905182518216911916179052565b50915050565b908151151560209081840151936040906108f58282015160608093015197845195878701528486015260808386015260a085019061061b565b90601f19928385840301608086015287519081845286840187808460051b8701019a01936000925b84841061095857505050505050509061094661094b92826109509596970390810183528261014c565b61078d565b6107bf565b805191012090565b9091929394959a878c8203018452898751918481019060018060a01b0384511681528483850151928785840152835180915284608084019401906000905b8082106109cb57505050916109b99184936001960151908781840391015261061b565b9d98019695919091019301919061091d565b92509294808297956001935181520196019201918e9492879296949661099656fea26469706673582212207554e6e714e2e10e4055bdae8e8d32b04ec8e335eebc1f74cfa3e0dab5de37d164736f6c63430008140033",
    "linkReferences": {}
  },
  "methodIdentifiers": {
    "proveReceiptInclusion(((bytes32,bytes32,address,bytes32,bytes32,bytes32,bytes,uint256,uint256,uint256,uint256,uint256,bytes,bytes32,uint256),(bool,uint256,bytes,(address,bytes32[],bytes)[]),uint256,bytes32[]))": "2bd27563"
  },
  "id": 24
}