{
  "abi": [
    {
      "anonymous": false,
      "inputs": [
        {
          "indexed": true,
          "internalType": "address",
          "name": "previousOwner",
          "type": "address"
        },
        {
          "indexed": true,
          "internalType": "address",
          "name": "newOwner",
          "type": "address"
        }
      ],
      "name": "OwnershipTransferred",
      "type": "event"
    },
    {
      "inputs": [
        {
          "internalType": "uint256",
          "name": "blockNumber",
          "type": "uint256"
        }
      ],
      "name": "getBlockHash",
      "outputs": [
        {
          "internalType": "bytes32",
          "name": "",
          "type": "bytes32"
        }
      ],
      "stateMutability": "view",
      "type": "function"
    },
    {
      "inputs": [],
      "name": "owner",
      "outputs": [
        {
          "internalType": "address",
          "name": "",
          "type": "address"
        }
      ],
      "stateMutability": "view",
      "type": "function"
    },
    {
      "inputs": [],
      "name": "renounceOwnership",
      "outputs": [],
      "stateMutability": "nonpayable",
      "type": "function"
    },
    {
      "inputs": [
        {
          "internalType": "uint256",
          "name": "blockNumber",
          "type": "uint256"
        },
        {
          "internalType": "bytes32",
          "name": "blockHash",
          "type": "bytes32"
        }
      ],
      "name": "setBlockHash",
      "outputs": [],
      "stateMutability": "nonpayable",
      "type": "function"
    },
    {
      "inputs": [
        {
          "internalType": "address",
          "name": "newOwner",
          "type": "address"
        }
      ],
      "name": "transferOwnership",
      "outputs": [],
      "stateMutability": "nonpayable",
      "type": "function"
    }
  ],
  "bytecode": {
    "object": "0x6080806040523461005b5760008054336001600160a01b0319821681178355916001600160a01b03909116907f8be0079c531659141344cd1fd0a4f28419497f9722a3daafe3b4186f6b6457e09080a361028790816100618239f35b600080fdfe604060808152600436101561001357600080fd5b600090813560e01c806345db756c146101cc578063715018a61461016f5780638da5cb5b14610148578063ee82ac5e146101205763f2fde38b1461005657600080fd5b3461011c57602036600319011261011c576001600160a01b036004358181169290839003610118576100866101f9565b82156100c6575082546001600160a01b0319811683178455167f8be0079c531659141344cd1fd0a4f28419497f9722a3daafe3b4186f6b6457e08380a380f35b5162461bcd60e51b815260206004820152602660248201527f4f776e61626c653a206e6577206f776e657220697320746865207a65726f206160448201526564647265737360d01b6064820152608490fd5b8380fd5b5080fd5b503461011c57602036600319011261011c578060209260043581526001845220549051908152f35b503461011c578160031936011261011c57905490516001600160a01b039091168152602090f35b82346101c957806003193601126101c9576101886101f9565b80546001600160a01b03198116825581906001600160a01b03167f8be0079c531659141344cd1fd0a4f28419497f9722a3daafe3b4186f6b6457e08280a380f35b80fd5b503461011c578060031936011261011c576101e56101f9565b600435825260016020526024359082205580f35b6000546001600160a01b0316330361020d57565b606460405162461bcd60e51b815260206004820152602060248201527f4f776e61626c653a2063616c6c6572206973206e6f7420746865206f776e65726044820152fdfea264697066735822122017609ea1f336f36773ee5158224fe657e9c78114789e8b73caaf583e16c90b4e64736f6c63430008140033",
    "linkReferences": {}
  },
  "methodIdentifiers": {
    "getBlockHash(uint256)": "ee82ac5e",
    "owner()": "8da5cb5b",
    "renounceOwnership()": "715018a6",
    "setBlockHash(uint256,bytes32)": "45db756c",
    "transferOwnership(address)": "f2fde38b"
  },
  "id": 25
}